:100000000C9434000C9451000C9451000C94510049
:100010000C9451000C9451000C9451000C9451001C
:100020000C9451000C9451000C9451000C9451000C
:100030000C9451000C9451000C9451000C945100FC
:100040000C9451000C9451000C9465000C945100D8
:100050000C9451000C9451000C9451000C945100DC
:100060000C9451000C94510011241FBECFEFD8E026
:10007000DEBFCDBF12E0A0E0B1E0E8E7F0E102C0F2
:1000800005900D92A437B107D9F712E0A4E7B2E0CA
:1000900001C01D92AC3AB107E1F70E9401030C9434
:1000A0003A080C940000F89414BEE0E6F0E088E111
:1000B0008083108289E18093C40088E98093C10025
:1000C00086E08093C200789408951F920F920FB635
:1000D0000F9211248F938091C600809374028091B7
:1000E00074028A3139F488E18093600088E080935B
:1000F0006000FFCF8F910F900FBE0F901F9018954B
:10010000F999FECF92BD81BD60BD84E08FBBF99AA5
:100110000895F999FECF92BD81BDF89A80B50895F2
:1001200090EC90937C0090917C00982B90937C00B5
:1001300087E880937A0088EE93E028EC30E0F901BC
:100140003197F1F70197D9F780917A008064809315
:100150007A0080917A0084FFFCCF809178009091A2
:10016000790020917A00206120937A00BC0180E020
:1001700090E008959C01DC010D900020E9F71197B3
:10018000A81BB90B90E00AC08091C00085FFFCCF8E
:10019000E20FF31F80818093C6009F5FE92FF0E09C
:1001A000EA17FB0788F308956F927F928F929F92D0
:1001B000AF92BF92CF92DF92EF92FF920F931F9375
:1001C000DF93CF93CDB7DEB72A970FB6F894DEBF93
:1001D0000FBECDBF5B016C013A010E94DB034B01F6
:1001E000C601B50120E030E040E050E00E946F031E
:1001F0008823F4F4B401882777FD8095982F0E9416
:100200000E0420E030E048EC52E40E94BE047B0182
:100210008C01C601B50120E030E048EC52EC0E94B0
:10022000BE049B01AC01C801B7010E940B031FC0B3
:10023000C601B50120E030E048EC52E40E94BE0463
:100240007B018C0184E690E0889EB001899E700D50
:10025000989E700D1124882777FD8095982F0E9415
:100260000E049B01AC01C801B7010E940A030E9461
:10027000DB036115710571F5CE01019621E062166F
:10028000710479F400D000D000D0EDB7FEB73196FC
:10029000ADB7BEB712969C938E93119780E091E014
:1002A0000EC000D000D000D0EDB7FEB73196ADB78C
:1002B000BEB712969C938E93119786E091E093833C
:1002C0008283958284820E9462052DB73EB72A5FA1
:1002D0003F4F34C0CE0101966A30710594F4ADB73A
:1002E000BEB718970FB6F894BEBF0FBEADBFEDB73F
:1002F000FEB7319612969C938E93119789E091E008
:1003000011C0ADB7BEB718970FB6F894BEBF0FBEF9
:10031000ADBFEDB7FEB7319612969C938E931197B1
:1003200080E191E0938382839582848277836683E0
:100330000E9462052DB73EB7285F3F4F0FB6F89475
:100340003EBF0FBE2DBFCE0101960E94BA002A9675
:100350000FB6F894DEBF0FBECDBFCF91DF911F91D6
:100360000F91FF90EF90DF90CF90BF90AF909F9054
:100370008F907F906F900895CF92DF92EF92FF92CF
:100380001F93CF93DF936B017C0186E191E00E9484
:10039000BA008DE391E00E94BA008BE791E00E94E1
:1003A000BA0086E00E94900060937A0270937B020C
:1003B00080937C0290937D0286E00E94900060937F
:1003C0007A0270937B0280937C0290937D0286E098
:1003D0000E94900060937A0270937B0280937C026B
:1003E00090937D0286E00E94900060937A02709361
:1003F0007B0280937C0290937D0286E00E949000B5
:1004000060937A0270937B0280937C0290937D02CA
:1004100010E0C8ECD0E086E00E94900060937A0281
:1004200070937B0280937C0290937D0220917E02E8
:1004300030917F024091800250918102260F371F38
:10044000481F591F20937E0230937F024093800201
:100450005093810288EE93E0FE013197F1F7019706
:10046000D9F71F5F1E31B9F6CA01B9012EE130E09C
:1004700040E050E00E944005CA0120938202309380
:1004800083024093840290938502B90128EB3BE0FC
:1004900040E050E00E942105A70196010E9440051E
:1004A000209376023093770240937802509379023A
:1004B0008FEF93E0622F0E9480008FE891E00E940E
:1004C000BA006091760270917702809178029091E3
:1004D00079020E940C0441E050E00E94D40088EAB6
:1004E00091E00E94BA0010E087E00E9490002CE2A8
:1004F00031E040E050E00E94210560937A02709361
:100500007B0280937C0290937D021F5F1A3061F71B
:1005100085EE91E00E94BA008DEF91E00E94BA0052
:1005200060917A0270917B0280917C0290917D02B1
:1005300020917602309177024091780250917902B1
:100540000E944005CA01B9010E940C0420E030E07D
:1005500048EC52E40E94730341E050E00E94D40052
:1005600080E192E00E94BA0010E086E00E949000D4
:100570002CE231E040E050E00E94210560937A02D5
:1005800070937B0280937C0290937D021F5F1A30F0
:1005900061F784E192E00E94BA0060917A02709162
:1005A0007B0280917C0290917D02209176023091B5
:1005B000770240917802509179020E944005CA0169
:1005C000B9010E940C0420E030E048EC52E40E94A3
:1005D000730341E050E00E94D40080E192E00E9469
:1005E000BA0087E292E00E94BA0086E492E00E949C
:1005F000BA00DF91CF911F91FF90EF90DF90CF90E5
:1006000008950E94530066EC7CE080E090E00E9438
:10061000BC01FFCF5058BB27AA270ED075C166D1A9
:1006200030F06BD120F031F49F3F11F41EF45BC128
:100630000EF4E095E7FB51C1E92F77D180F3BA17AB
:10064000620773078407950718F071F49EF58FC150
:100650000EF4E0950B2EBA2FA02D0B01B9019001DD
:100660000C01CA01A0011124FF27591B99F0593F21
:1006700050F4503E68F11A16F040A22F232F342F69
:100680004427585FF3CF469537952795A795F040B7
:100690005395C9F77EF41F16BA0B620B730B840BCC
:1006A000BAF09150A1F0FF0FBB1F661F771F881F84
:1006B000C2F70EC0BA0F621F731F841F48F48795DC
:1006C00077956795B795F7959E3F08F0B3CF9395CB
:1006D000880F08F09927EE0F979587950895D9D040
:1006E00008F481E008950CD00FC107D140F0FED08E
:1006F00030F021F45F3F19F0F0C0511139C1F3C05F
:1007000014D198F39923C9F35523B1F3951B550BD5
:10071000BB27AA2762177307840738F09F5F5F4FD4
:10072000220F331F441FAA1FA9F333D00E2E3AF015
:10073000E0E830D091505040E695001CCAF729D02F
:10074000FE2F27D0660F771F881FBB1F261737077E
:100750004807AB07B0E809F0BB0B802DBF01FF27AE
:1007600093585F4F2AF09E3F510568F0B6C000C114
:100770005F3FECF3983EDCF3869577956795B795E8
:10078000F7959F5FC9F7880F911D9695879597F903
:100790000895E1E0660F771F881FBB1F621773077C
:1007A0008407BA0720F0621B730B840BBA0BEE1F91
:1007B00088F7E095089504D06894B111D9C00895E0
:1007C000BCD088F09F5790F0B92F9927B751A0F06F
:1007D000D1F0660F771F881F991F1AF0BA95C9F7D5
:1007E00012C0B13081F0C3D0B1E00895C0C0672F0E
:1007F000782F8827B85F39F0B93FCCF38695779585
:100800006795B395D9F73EF490958095709561956D
:100810007F4F8F4F9F4F0895E89409C097FB3EF498
:1008200090958095709561957F4F8F4F9F4F99233D
:10083000A9F0F92F96E9BB279395F69587957795BB
:100840006795B795F111F8CFFAF4BB0F11F460FF7B
:100850001BC06F5F7F4F8F4F9F4F16C0882311F0D3
:1008600096E911C0772321F09EE8872F762F05C0E7
:10087000662371F096E8862F70E060E02AF09A9582
:10088000660F771F881FDAF7880F9695879597F977
:100890000895990F0008550FAA0BE0E8FEEF161611
:1008A0001706E807F907C0F012161306E407F50764
:1008B00098F0621B730B840B950B39F40A2661F0D8
:1008C000232B242B252B21F408950A2609F4A1407B
:1008D000A6958FEF811D811D089597F99F6780E888
:1008E00070E060E008959FEF80EC089500240A9482
:1008F0001616170618060906089500240A941216FB
:100900001306140605060895092E0394000C11F42D
:10091000882352F0BB0F40F4BF2B11F460FF04C0DA
:100920006F5F7F4F8F4F9F4F089557FD9058440F33
:10093000551F59F05F3F71F04795880F97FB991F3E
:1009400061F09F3F79F087950895121613061406FB
:10095000551FF2CF4695F1DF08C016161706180688
:10096000991FF1CF86957105610508940895E89463
:10097000BB2766277727CB0197F908950BD0C4CF03
:10098000B5DF28F0BADF18F0952309F0A6CFABCF7A
:100990001124EECFCADFA0F3959FD1F3950F50E05D
:1009A000551F629FF001729FBB27F00DB11D639F21
:1009B000AA27F00DB11DAA1F649F6627B00DA11DC7
:1009C000661F829F2227B00DA11D621F739FB00D6D
:1009D000A11D621F839FA00D611D221F749F3327DD
:1009E000A00D611D231F849F600D211D822F762F76
:1009F0006A2F11249F5750408AF0E1F088234AF073
:100A0000EE0FFF1FBB1F661F771F881F91505040BE
:100A1000A9F79E3F510570F060CFAACF5F3FECF37E
:100A2000983EDCF3869577956795B795F795E795AA
:100A30009F5FC1F7FE2B880F911D9695879597F9BB
:100A40000895629FD001739FF001829FE00DF11D18
:100A5000649FE00DF11D929FF00D839FF00D749F38
:100A6000F00D659FF00D9927729FB00DE11DF91FE4
:100A7000639FB00DE11DF91FBD01CF011124089541
:100A8000A1E21A2EAA1BBB1BFD010DC0AA1FBB1F92
:100A9000EE1FFF1FA217B307E407F50720F0A21B04
:100AA000B30BE40BF50B661F771F881F991F1A9471
:100AB00069F760957095809590959B01AC01BD019B
:100AC000CF010895AEE0B0E0E8E6F5E00C9411083F
:100AD0000D891E8986E08C831A8309838FEF9FE737
:100AE0009E838D839E01275E3F4FCE0101966F89C5
:100AF000788DA9010E9486052F813885020F131F6A
:100B0000F80110822E96E4E00C942D08ABE0B0E0E2
:100B1000ECE8F5E00C9403083C012B015A01FC01C0
:100B200017821682838181FD03C06FEF7FEFC6C1FC
:100B30009AE0892E1E010894211C311CF3012381A7
:100B4000F20123FD859123FF81912F01882309F470
:100B5000B2C1853239F423FD859123FF81912F01A4
:100B6000853229F490E0B3010E947907E7CF982FEE
:100B7000FF24EE249924FFE1FF15D0F09B3269F0A9
:100B80009C3228F4903259F0933291F40EC09D3289
:100B900049F0903369F441E024C052E0F52A84E042
:100BA000F82A28C098E0F92A25C0E0E1FE2A22C0F0
:100BB000F7FC29C0892F80538A3070F4F6FE05C0F7
:100BC000989C902C1124980E15C0E89CE02C1124C0
:100BD000E80EF0E2FF2A0EC09E3229F4F6FC6BC14B
:100BE00040E4F42A07C09C3619F450E8F52A02C004
:100BF000983649F4F20123FD959123FF91912F013D
:100C0000992309F0B8CF892F8554833018F080528A
:100C1000833038F444E050E0A40EB51E5FE35983FE
:100C20000FC0933631F0933779F0933509F056C001
:100C300020C0F5018081898342E050E0A40EB51EFA
:100C4000610101E010E012C0F501C080D180F6FC26
:100C500003C06FEF7FEF02C0692D70E042E050E00B
:100C6000A40EB51EC6010E946E078C015FE7F52237
:100C700014C0F501C080D180F6FC03C06FEF7FEF98
:100C800002C0692D70E042E050E0A40EB51EC6011E
:100C90000E9463078C0150E8F52AF3FE07C01AC0D2
:100CA00080E290E0B3010E947907EA948E2D90E0F3
:100CB00008171907A8F30EC0F601F7FC8591F7FE97
:100CC00081916F0190E0B3010E947907E110EA94ED
:100CD000015010400115110579F7EAC0943611F062
:100CE000993669F5F7FE08C0F5012081318142810E
:100CF000538184E090E00AC0F501808191819C01DC
:100D0000442737FD4095542F82E090E0A80EB91E8D
:100D10009FE6F92257FF09C05095409530952195DF
:100D20003F4F4F4F5F4FE0E8FE2ACA01B901A101D2
:100D30002AE030E00E94A507D82ED21840C095378F
:100D400029F41F2D1F7E2AE030E01DC01F2D197FC2
:100D50009F3661F0903720F4983509F0ACC00FC091
:100D6000903739F0983709F0A6C004C028E030E089
:100D70000AC0106114FD146020E130E004C014FDCD
:100D8000166020E132E017FF08C0F5016081718133
:100D90008281938144E050E008C0F5018081918117
:100DA000BC0180E090E042E050E0A40EB51EA1013D
:100DB0000E94A507D82ED2188FE7F82EF122F6FE52
:100DC0000BC05EEFF522D91438F4F4FE07C0F2FC34
:100DD00005C08FEEF82202C01D2D01C0192DF4FEB2
:100DE0000DC0FE01ED0DF11D8081803319F499EEE7
:100DF000F92208C01F5FF2FE05C003C08F2D867860
:100E000009F01F5F0F2DF3FC14C0F0FE0FC01E157C
:100E100010F09D2C0BC09D2C9E0C911A1E2D06C00F
:100E200080E290E0B3010E9479071F5F1E15C0F3B6
:100E300004C01E1510F4E11A01C0EE2404FF0FC017
:100E400080E390E0B3010E94790702FF1DC001FD1D
:100E500003C088E790E00EC088E590E00BC0802FCB
:100E6000867891F001FF02C08BE201C080E2F7FCBE
:100E70008DE290E0B3010E94790706C080E390E024
:100E8000B3010E9479079A94D914C0F3DA94F1015E
:100E9000ED0DF11D808190E0B3010E947907DD2006
:100EA000A9F706C080E290E0B3010E947907EA94B6
:100EB000EE20C1F743CEF30166817781CB012B96FB
:100EC000E2E10C941F08FC01059061507040011094
:100ED000D8F7809590958E0F9F1F0895FC01615063
:100EE000704001900110D8F7809590958E0F9F1F4C
:100EF00008950F931F93CF93DF938C01EB018B81A8
:100F000081FF1BC082FF0DC02E813F818C819D819E
:100F10002817390764F4E881F9810193F983E8839C
:100F200006C0E885F985802F0995892B31F48E81DB
:100F30009F8101969F838E8302C00FEF1FEFC80130
:100F4000DF91CF911F910F910895FA01AA272830C0
:100F500051F1203181F1E8946F936E7F6E5F7F4F86
:100F60008F4F9F4FAF4FB1E03ED0B4E03CD0670F02
:100F7000781F891F9A1FA11D680F791F8A1F911D55
:100F8000A11D6A0F711D811D911DA11D20D009F4A5
:100F900068943F912AE0269F11243019305D3193E7
:100FA000DEF6CF010895462F4770405D4193B3E0D0
:100FB0000FD0C9F7F6CF462F4F70405D4A3318F077
:100FC000495D31FD4052419302D0A9F7EACFB4E028
:100FD000A6959795879577956795BA95C9F70097E0
:100FE0006105710508959B01AC010A2E0694579581
:100FF000479537952795BA95C9F7620F731F841FD8
:10100000951FA01D08952F923F924F925F926F926D
:101010007F928F929F92AF92BF92CF92DF92EF9288
:10102000FF920F931F93CF93DF93CDB7DEB7CA1B09
:10103000DB0B0FB6F894DEBF0FBECDBF09942A8834
:10104000398848885F846E847D848C849B84AA84DC
:10105000B984C884DF80EE80FD800C811B81AA8169
:10106000B981CE0FD11D0FB6F894DEBF0FBECDBF34
:08107000ED010895F894FFCF93
:1010780025642E30300025640025642E3025640058
:1010880025642E2564000A4D616B652073757265B1
:1010980020737570706C792069732067726561744C
:1010A8006572207468616E20342E3876000A4966AD
:1010B80020737570706C79206973206C6573732068
:1010C8007468616E20342E38762C2063616C6962F6
:1010D800726174696F6E20726573756C74206973C0
:1010E80020696E76616C6964210A005461736B2013
:1010F800696E2070726F6772657373210A0A004106
:1011080044432043616C6962726174696F6E205652
:10111800616C7565203A20000A43616C69627261EE
:1011280074696F6E2076616C75652063616E2062EC
:10113800652061636365737365642066726F6D20F3
:10114800454550524F4D2061646472657373203178
:101158003032330A000A566F6C746167652070611B
:1011680072616D65746572732E2E2E0A0053757048
:10117800706C7920766F6C7461676520203A200066
:1011880020560A0043505520766F6C7461676520BD
:10119800202020203A20000A4144432073756363CD
:1011A80065737366756C6C792063616C69627261D2
:1011B800746564210A00526561647920666F722043
:1011C8006E6577206170706C69636174696F6E20F9
:1011D80070726F6772616D20746F2075706C6F61CB
:0411E80064210A0074
:00000001FF
